{
  "_format": "hh-sol-artifact-1",
  "contractName": "TeaFiMinter",
  "sourceName": "contracts/Minters/TeaFiMinter.sol",
  "abi": [
    {
      "inputs": [
        {
          "internalType": "address",
          "name": "defaultAdmin",
          "type": "address"
        },
        {
          "components": [
            {
              "internalType": "address",
              "name": "nft",
              "type": "address"
            },
            {
              "internalType": "bytes32",
              "name": "rootGTD",
              "type": "bytes32"
            },
            {
              "internalType": "bytes32",
              "name": "rootWait",
              "type": "bytes32"
            },
            {
              "internalType": "uint256",
              "name": "startGTD",
              "type": "uint256"
            },
            {
              "internalType": "uint256",
              "name": "startWait",
              "type": "uint256"
            },
            {
              "internalType": "uint256",
              "name": "startPublic",
              "type": "uint256"
            },
            {
              "internalType": "uint256",
              "name": "supply",
              "type": "uint256"
            },
            {
              "internalType": "uint256",
              "name": "claimLimit",
              "type": "uint256"
            }
          ],
          "internalType": "struct TeaFiMinter.Init",
          "name": "init",
          "type": "tuple"
        }
      ],
      "stateMutability": "nonpayable",
      "type": "constructor"
    },
    {
      "inputs": [],
      "name": "AccessControlBadConfirmation",
      "type": "error"
    },
    {
      "inputs": [
        {
          "internalType": "address",
          "name": "account",
          "type": "address"
        },
        {
          "internalType": "bytes32",
          "name": "neededRole",
          "type": "bytes32"
        }
      ],
      "name": "AccessControlUnauthorizedAccount",
      "type": "error"
    },
    {
      "anonymous": false,
      "inputs": [
        {
          "indexed": false,
          "internalType": "address",
          "name": "user",
          "type": "address"
        },
        {
          "indexed": false,
          "internalType": "enum TeaFiMinter.Phase",
          "name": "phase",
          "type": "uint8"
        },
        {
          "indexed": false,
          "internalType": "uint256",
          "name": "remains",
          "type": "uint256"
        }
      ],
      "name": "Claimed",
      "type": "event"
    },
    {
      "anonymous": false,
      "inputs": [
        {
          "indexed": true,
          "internalType": "bytes32",
          "name": "role",
          "type": "bytes32"
        },
        {
          "indexed": true,
          "internalType": "bytes32",
          "name": "previousAdminRole",
          "type": "bytes32"
        },
        {
          "indexed": true,
          "internalType": "bytes32",
          "name": "newAdminRole",
          "type": "bytes32"
        }
      ],
      "name": "RoleAdminChanged",
      "type": "event"
    },
    {
      "anonymous": false,
      "inputs": [
        {
          "indexed": true,
          "internalType": "bytes32",
          "name": "role",
          "type": "bytes32"
        },
        {
          "indexed": true,
          "internalType": "address",
          "name": "account",
          "type": "address"
        },
        {
          "indexed": true,
          "internalType": "address",
          "name": "sender",
          "type": "address"
        }
      ],
      "name": "RoleGranted",
      "type": "event"
    },
    {
      "anonymous": false,
      "inputs": [
        {
          "indexed": true,
          "internalType": "bytes32",
          "name": "role",
          "type": "bytes32"
        },
        {
          "indexed": true,
          "internalType": "address",
          "name": "account",
          "type": "address"
        },
        {
          "indexed": true,
          "internalType": "address",
          "name": "sender",
          "type": "address"
        }
      ],
      "name": "RoleRevoked",
      "type": "event"
    },
    {
      "inputs": [],
      "name": "ADMIN_ROLE",
      "outputs": [
        {
          "internalType": "bytes32",
          "name": "",
          "type": "bytes32"
        }
      ],
      "stateMutability": "view",
      "type": "function"
    },
    {
      "inputs": [],
      "name": "DEFAULT_ADMIN_ROLE",
      "outputs": [
        {
          "internalType": "bytes32",
          "name": "",
          "type": "bytes32"
        }
      ],
      "stateMutability": "view",
      "type": "function"
    },
    {
      "inputs": [],
      "name": "claimLimit",
      "outputs": [
        {
          "internalType": "uint256",
          "name": "",
          "type": "uint256"
        }
      ],
      "stateMutability": "view",
      "type": "function"
    },
    {
      "inputs": [
        {
          "internalType": "address",
          "name": "",
          "type": "address"
        }
      ],
      "name": "claimed",
      "outputs": [
        {
          "internalType": "uint256",
          "name": "",
          "type": "uint256"
        }
      ],
      "stateMutability": "view",
      "type": "function"
    },
    {
      "inputs": [
        {
          "internalType": "bytes32",
          "name": "role",
          "type": "bytes32"
        }
      ],
      "name": "getRoleAdmin",
      "outputs": [
        {
          "internalType": "bytes32",
          "name": "",
          "type": "bytes32"
        }
      ],
      "stateMutability": "view",
      "type": "function"
    },
    {
      "inputs": [
        {
          "internalType": "bytes32",
          "name": "role",
          "type": "bytes32"
        },
        {
          "internalType": "address",
          "name": "account",
          "type": "address"
        }
      ],
      "name": "grantRole",
      "outputs": [],
      "stateMutability": "nonpayable",
      "type": "function"
    },
    {
      "inputs": [
        {
          "internalType": "bytes32",
          "name": "role",
          "type": "bytes32"
        },
        {
          "internalType": "address",
          "name": "account",
          "type": "address"
        }
      ],
      "name": "hasRole",
      "outputs": [
        {
          "internalType": "bool",
          "name": "",
          "type": "bool"
        }
      ],
      "stateMutability": "view",
      "type": "function"
    },
    {
      "inputs": [],
      "name": "mintPublic",
      "outputs": [],
      "stateMutability": "nonpayable",
      "type": "function"
    },
    {
      "inputs": [
        {
          "internalType": "bytes32[]",
          "name": "proof",
          "type": "bytes32[]"
        }
      ],
      "name": "mintWithProof",
      "outputs": [],
      "stateMutability": "nonpayable",
      "type": "function"
    },
    {
      "inputs": [],
      "name": "nftAddress",
      "outputs": [
        {
          "internalType": "address",
          "name": "",
          "type": "address"
        }
      ],
      "stateMutability": "view",
      "type": "function"
    },
    {
      "inputs": [
        {
          "internalType": "bytes32",
          "name": "role",
          "type": "bytes32"
        },
        {
          "internalType": "address",
          "name": "callerConfirmation",
          "type": "address"
        }
      ],
      "name": "renounceRole",
      "outputs": [],
      "stateMutability": "nonpayable",
      "type": "function"
    },
    {
      "inputs": [
        {
          "internalType": "address",
          "name": "user",
          "type": "address"
        }
      ],
      "name": "resetClaim",
      "outputs": [],
      "stateMutability": "nonpayable",
      "type": "function"
    },
    {
      "inputs": [
        {
          "internalType": "bytes32",
          "name": "role",
          "type": "bytes32"
        },
        {
          "internalType": "address",
          "name": "account",
          "type": "address"
        }
      ],
      "name": "revokeRole",
      "outputs": [],
      "stateMutability": "nonpayable",
      "type": "function"
    },
    {
      "inputs": [
        {
          "internalType": "bytes32",
          "name": "newRoot",
          "type": "bytes32"
        }
      ],
      "name": "setRootGTD",
      "outputs": [],
      "stateMutability": "nonpayable",
      "type": "function"
    },
    {
      "inputs": [
        {
          "internalType": "bytes32",
          "name": "newRoot",
          "type": "bytes32"
        }
      ],
      "name": "setRootWait",
      "outputs": [],
      "stateMutability": "nonpayable",
      "type": "function"
    },
    {
      "inputs": [
        {
          "internalType": "uint256",
          "name": "gtd",
          "type": "uint256"
        },
        {
          "internalType": "uint256",
          "name": "wait",
          "type": "uint256"
        },
        {
          "internalType": "uint256",
          "name": "pub",
          "type": "uint256"
        }
      ],
      "name": "setTimes",
      "outputs": [],
      "stateMutability": "nonpayable",
      "type": "function"
    },
    {
      "inputs": [],
      "name": "startGTD",
      "outputs": [
        {
          "internalType": "uint256",
          "name": "",
          "type": "uint256"
        }
      ],
      "stateMutability": "view",
      "type": "function"
    },
    {
      "inputs": [],
      "name": "startPublic",
      "outputs": [
        {
          "internalType": "uint256",
          "name": "",
          "type": "uint256"
        }
      ],
      "stateMutability": "view",
      "type": "function"
    },
    {
      "inputs": [],
      "name": "startWait",
      "outputs": [
        {
          "internalType": "uint256",
          "name": "",
          "type": "uint256"
        }
      ],
      "stateMutability": "view",
      "type": "function"
    },
    {
      "inputs": [],
      "name": "supplyRemains",
      "outputs": [
        {
          "internalType": "uint256",
          "name": "",
          "type": "uint256"
        }
      ],
      "stateMutability": "view",
      "type": "function"
    },
    {
      "inputs": [
        {
          "internalType": "bytes4",
          "name": "interfaceId",
          "type": "bytes4"
        }
      ],
      "name": "supportsInterface",
      "outputs": [
        {
          "internalType": "bool",
          "name": "",
          "type": "bool"
        }
      ],
      "stateMutability": "view",
      "type": "function"
    }
  ],
  "bytecode": "0x60a060405234801561001057600080fd5b50604051610f89380380610f8983398101604081905261002f91610179565b61003a6000836100b1565b506100657fa49807205ce4d355092ef5a8a18f56e8913cf4a201fbe287825b095693c21775836100b1565b5080516001600160a01b0316608090815260208201516001556040820151600255606082015160045581015160055560a081015160065560c081015160035560e0015160075550610250565b6000828152602081815260408083206001600160a01b038516845290915281205460ff16610153576000838152602081815260408083206001600160a01b03861684529091529020805460ff1916600117905561010b3390565b6001600160a01b0316826001600160a01b0316847f2f8788117e7eff1d82e926ec794901d17c78024a50270940304540a733656f0d60405160405180910390a4506001610157565b5060005b92915050565b80516001600160a01b038116811461017457600080fd5b919050565b60008082840361012081121561018e57600080fd5b6101978461015d565b9250610100601f19820112156101ac57600080fd5b5060405161010081016001600160401b03811182821017156101de57634e487b7160e01b600052604160045260246000fd5b6040526101ed6020850161015d565b81526040848101516020830152606080860151918301919091526080808601519183019190915260a0808601519183019190915260c0808601519183019190915260e0808601519183019190915261010090940151938101939093525092909150565b608051610d17610272600039600081816101c2015261083d0152610d176000f3fe608060405234801561001057600080fd5b50600436106101375760003560e01c806391d14854116100b8578063c11442f81161007c578063c11442f8146102b8578063c884ef83146102c1578063cf135c86146102e1578063d338b03c146102f4578063d547741f14610307578063ed47e8af1461031a57600080fd5b806391d14854146102785780639411ef0b1461028b578063a217fddf14610294578063a32822521461029c578063be610676146102af57600080fd5b80635e302e43116100ff5780635e302e43146101fc578063700805e31461020557806375b238fc1461022d5780638c874ebd146102545780638f704aec1461025c57600080fd5b806301ffc9a71461013c578063248a9ca3146101645780632f2ff15d1461019557806336568abe146101aa5780635bf8633a146101bd575b600080fd5b61014f61014a366004610a9b565b610323565b60405190151581526020015b60405180910390f35b610187610172366004610ac5565b60009081526020819052604090206001015490565b60405190815260200161015b565b6101a86101a3366004610afa565b61035a565b005b6101a86101b8366004610afa565b610385565b6101e47f000000000000000000000000000000000000000000000000000000000000000081565b6040516001600160a01b03909116815260200161015b565b61018760035481565b6101a8610213366004610b26565b6001600160a01b0316600090815260086020526040812055565b6101877fa49807205ce4d355092ef5a8a18f56e8913cf4a201fbe287825b095693c2177581565b6101a86103bd565b6101a861026a366004610b41565b600492909255600555600655565b61014f610286366004610afa565b61048f565b61018760055481565b610187600081565b6101a86102aa366004610ac5565b6104b8565b61018760075481565b61018760065481565b6101876102cf366004610b26565b60086020526000908152604090205481565b6101a86102ef366004610ac5565b6104e8565b6101a8610302366004610b83565b610518565b6101a8610315366004610afa565b61069f565b61018760045481565b60006001600160e01b03198216637965db0b60e01b148061035457506301ffc9a760e01b6001600160e01b03198316145b92915050565b600082815260208190526040902060010154610375816106c4565b61037f83836106d1565b50505050565b6001600160a01b03811633146103ae5760405163334bd91960e11b815260040160405180910390fd5b6103b88282610763565b505050565b336000908152600860205260409020546001116104155760405162461bcd60e51b8152602060048201526011602482015270416c6c726561647920636c61696d65642160781b60448201526064015b60405180910390fd5b60065442101561045d5760405162461bcd60e51b8152602060048201526013602482015272546f6f206561726c7920746f20636c61696d2160681b604482015260640161040c565b33600090815260086020526040812080546001929061047d908490610c66565b9091555061048d905060026107ce565b565b6000918252602082815260408084206001600160a01b0393909316845291905290205460ff1690565b7fa49807205ce4d355092ef5a8a18f56e8913cf4a201fbe287825b095693c217756104e2816106c4565b50600155565b7fa49807205ce4d355092ef5a8a18f56e8913cf4a201fbe287825b095693c21775610512816106c4565b50600255565b600754336000908152600860205260409020541061056c5760405162461bcd60e51b8152602060048201526011602482015270416c6c726561647920636c61696d65642160781b604482015260640161040c565b6004544210156105b45760405162461bcd60e51b8152602060048201526013602482015272546f6f206561726c7920746f20636c61696d2160681b604482015260640161040c565b604080513360208201526000910160408051601f198184030181528282528051602091820120908301520160405160208183030381529060405280519060200120905060055442101561063557336000908152600860205260408120805460019290610621908490610c66565b90915550610631905082826108e1565b5050565b60065442101561066f5733600090815260086020526040812080546001929061065f908490610c66565b909155506106319050828261095e565b33600090815260086020526040812080546001929061068f908490610c66565b90915550610631905060026107ce565b6000828152602081905260409020600101546106ba816106c4565b61037f8383610763565b6106ce81336109d7565b50565b60006106dd838361048f565b61075b576000838152602081815260408083206001600160a01b03861684529091529020805460ff191660011790556107133390565b6001600160a01b0316826001600160a01b0316847f2f8788117e7eff1d82e926ec794901d17c78024a50270940304540a733656f0d60405160405180910390a4506001610354565b506000610354565b600061076f838361048f565b1561075b576000838152602081815260408083206001600160a01b0386168085529252808320805460ff1916905551339286917ff6391f5c32d9c69d2a47ea670b442974b53935d1edc7fd64eb21e047a839171b9190a4506001610354565b6000600354116108105760405162461bcd60e51b815260206004820152600d60248201526c4f7574206f662073746f636b2160981b604482015260640161040c565b6001600360008282546108239190610c79565b90915550506040516340d097c360e01b81523360048201527f00000000000000000000000000000000000000000000000000000000000000006001600160a01b0316906340d097c390602401600060405180830381600087803b15801561088957600080fd5b505af115801561089d573d6000803e3d6000fd5b505050507fc73092756e22756fd0b15b2f803bd49db35ee23e7ae171c4d414ab7a61fa8b7c33826003546040516108d693929190610c8c565b60405180910390a150565b6001546108f090839083610a10565b6109545760405162461bcd60e51b815260206004820152602f60248201527f53656e6465722069736e277420696e204754442077686974656c697374206f7260448201526e20696e76616c69642070726f6f662160881b606482015260840161040c565b61063160006107ce565b60025461096d90839083610a10565b6109cd5760405162461bcd60e51b815260206004820152602b60248201527f53656e6465722069736e277420696e2077686974656c697374206f7220696e7660448201526a616c69642070726f6f662160a81b606482015260840161040c565b61063160016107ce565b6109e1828261048f565b6106315760405163e2517d3f60e01b81526001600160a01b03821660048201526024810183905260440161040c565b600082610a1d8584610a26565b14949350505050565b600081815b8451811015610a6157610a5782868381518110610a4a57610a4a610ccb565b6020026020010151610a69565b9150600101610a2b565b509392505050565b6000818310610a85576000828152602084905260409020610a94565b60008381526020839052604090205b9392505050565b600060208284031215610aad57600080fd5b81356001600160e01b031981168114610a9457600080fd5b600060208284031215610ad757600080fd5b5035919050565b80356001600160a01b0381168114610af557600080fd5b919050565b60008060408385031215610b0d57600080fd5b82359150610b1d60208401610ade565b90509250929050565b600060208284031215610b3857600080fd5b610a9482610ade565b600080600060608486031215610b5657600080fd5b505081359360208301359350604090920135919050565b634e487b7160e01b600052604160045260246000fd5b600060208284031215610b9557600080fd5b813567ffffffffffffffff811115610bac57600080fd5b8201601f81018413610bbd57600080fd5b803567ffffffffffffffff811115610bd757610bd7610b6d565b8060051b604051601f19603f830116810181811067ffffffffffffffff82111715610c0457610c04610b6d565b604052918252602081840181019290810187841115610c2257600080fd5b6020850194505b83851015610c4557843580825260209586019590935001610c29565b509695505050505050565b634e487b7160e01b600052601160045260246000fd5b8082018082111561035457610354610c50565b8181038181111561035457610354610c50565b6001600160a01b03841681526060810160038410610cba57634e487b7160e01b600052602160045260246000fd5b602082019390935260400152919050565b634e487b7160e01b600052603260045260246000fdfea2646970667358221220415c0d748cdecaf0af27f16f7fda977b6baa072567070eaa31b4d43632fe71a064736f6c634300081b0033",
  "linkReferences": {},
  "deployedLinkReferences": {}
}