{
  "_format": "hh-sol-artifact-1",
  "contractName": "TeaFiMinter",
  "sourceName": "contracts/Minters/TeaFiMinter.sol",
  "abi": [
    {
      "inputs": [
        {
          "internalType": "address",
          "name": "defaultAdmin",
          "type": "address"
        },
        {
          "components": [
            {
              "internalType": "address",
              "name": "nft",
              "type": "address"
            },
            {
              "internalType": "bytes32",
              "name": "rootGTD",
              "type": "bytes32"
            },
            {
              "internalType": "bytes32",
              "name": "rootWait",
              "type": "bytes32"
            },
            {
              "internalType": "uint256",
              "name": "startGTD",
              "type": "uint256"
            },
            {
              "internalType": "uint256",
              "name": "startWait",
              "type": "uint256"
            },
            {
              "internalType": "uint256",
              "name": "startPublic",
              "type": "uint256"
            },
            {
              "internalType": "uint256",
              "name": "supply",
              "type": "uint256"
            },
            {
              "internalType": "uint256",
              "name": "claimLimit",
              "type": "uint256"
            }
          ],
          "internalType": "struct TeaFiMinter.Init",
          "name": "init",
          "type": "tuple"
        }
      ],
      "stateMutability": "nonpayable",
      "type": "constructor"
    },
    {
      "inputs": [],
      "name": "AccessControlBadConfirmation",
      "type": "error"
    },
    {
      "inputs": [
        {
          "internalType": "address",
          "name": "account",
          "type": "address"
        },
        {
          "internalType": "bytes32",
          "name": "neededRole",
          "type": "bytes32"
        }
      ],
      "name": "AccessControlUnauthorizedAccount",
      "type": "error"
    },
    {
      "anonymous": false,
      "inputs": [
        {
          "indexed": false,
          "internalType": "address",
          "name": "user",
          "type": "address"
        },
        {
          "indexed": false,
          "internalType": "enum TeaFiMinter.Phase",
          "name": "phase",
          "type": "uint8"
        },
        {
          "indexed": false,
          "internalType": "uint256",
          "name": "remains",
          "type": "uint256"
        }
      ],
      "name": "Claimed",
      "type": "event"
    },
    {
      "anonymous": false,
      "inputs": [
        {
          "indexed": true,
          "internalType": "bytes32",
          "name": "role",
          "type": "bytes32"
        },
        {
          "indexed": true,
          "internalType": "bytes32",
          "name": "previousAdminRole",
          "type": "bytes32"
        },
        {
          "indexed": true,
          "internalType": "bytes32",
          "name": "newAdminRole",
          "type": "bytes32"
        }
      ],
      "name": "RoleAdminChanged",
      "type": "event"
    },
    {
      "anonymous": false,
      "inputs": [
        {
          "indexed": true,
          "internalType": "bytes32",
          "name": "role",
          "type": "bytes32"
        },
        {
          "indexed": true,
          "internalType": "address",
          "name": "account",
          "type": "address"
        },
        {
          "indexed": true,
          "internalType": "address",
          "name": "sender",
          "type": "address"
        }
      ],
      "name": "RoleGranted",
      "type": "event"
    },
    {
      "anonymous": false,
      "inputs": [
        {
          "indexed": true,
          "internalType": "bytes32",
          "name": "role",
          "type": "bytes32"
        },
        {
          "indexed": true,
          "internalType": "address",
          "name": "account",
          "type": "address"
        },
        {
          "indexed": true,
          "internalType": "address",
          "name": "sender",
          "type": "address"
        }
      ],
      "name": "RoleRevoked",
      "type": "event"
    },
    {
      "inputs": [],
      "name": "ADMIN_ROLE",
      "outputs": [
        {
          "internalType": "bytes32",
          "name": "",
          "type": "bytes32"
        }
      ],
      "stateMutability": "view",
      "type": "function"
    },
    {
      "inputs": [],
      "name": "DEFAULT_ADMIN_ROLE",
      "outputs": [
        {
          "internalType": "bytes32",
          "name": "",
          "type": "bytes32"
        }
      ],
      "stateMutability": "view",
      "type": "function"
    },
    {
      "inputs": [],
      "name": "claimLimit",
      "outputs": [
        {
          "internalType": "uint256",
          "name": "",
          "type": "uint256"
        }
      ],
      "stateMutability": "view",
      "type": "function"
    },
    {
      "inputs": [
        {
          "internalType": "address",
          "name": "",
          "type": "address"
        }
      ],
      "name": "claimed",
      "outputs": [
        {
          "internalType": "uint256",
          "name": "",
          "type": "uint256"
        }
      ],
      "stateMutability": "view",
      "type": "function"
    },
    {
      "inputs": [
        {
          "internalType": "bytes32",
          "name": "role",
          "type": "bytes32"
        }
      ],
      "name": "getRoleAdmin",
      "outputs": [
        {
          "internalType": "bytes32",
          "name": "",
          "type": "bytes32"
        }
      ],
      "stateMutability": "view",
      "type": "function"
    },
    {
      "inputs": [
        {
          "internalType": "bytes32",
          "name": "role",
          "type": "bytes32"
        },
        {
          "internalType": "address",
          "name": "account",
          "type": "address"
        }
      ],
      "name": "grantRole",
      "outputs": [],
      "stateMutability": "nonpayable",
      "type": "function"
    },
    {
      "inputs": [
        {
          "internalType": "bytes32",
          "name": "role",
          "type": "bytes32"
        },
        {
          "internalType": "address",
          "name": "account",
          "type": "address"
        }
      ],
      "name": "hasRole",
      "outputs": [
        {
          "internalType": "bool",
          "name": "",
          "type": "bool"
        }
      ],
      "stateMutability": "view",
      "type": "function"
    },
    {
      "inputs": [],
      "name": "mintPublic",
      "outputs": [],
      "stateMutability": "nonpayable",
      "type": "function"
    },
    {
      "inputs": [
        {
          "internalType": "bytes32[]",
          "name": "proof",
          "type": "bytes32[]"
        }
      ],
      "name": "mintWithProof",
      "outputs": [],
      "stateMutability": "nonpayable",
      "type": "function"
    },
    {
      "inputs": [],
      "name": "nftAddress",
      "outputs": [
        {
          "internalType": "address",
          "name": "",
          "type": "address"
        }
      ],
      "stateMutability": "view",
      "type": "function"
    },
    {
      "inputs": [
        {
          "internalType": "bytes32",
          "name": "role",
          "type": "bytes32"
        },
        {
          "internalType": "address",
          "name": "callerConfirmation",
          "type": "address"
        }
      ],
      "name": "renounceRole",
      "outputs": [],
      "stateMutability": "nonpayable",
      "type": "function"
    },
    {
      "inputs": [
        {
          "internalType": "bytes32",
          "name": "role",
          "type": "bytes32"
        },
        {
          "internalType": "address",
          "name": "account",
          "type": "address"
        }
      ],
      "name": "revokeRole",
      "outputs": [],
      "stateMutability": "nonpayable",
      "type": "function"
    },
    {
      "inputs": [
        {
          "internalType": "bytes32",
          "name": "newRoot",
          "type": "bytes32"
        }
      ],
      "name": "setRootGTD",
      "outputs": [],
      "stateMutability": "nonpayable",
      "type": "function"
    },
    {
      "inputs": [
        {
          "internalType": "bytes32",
          "name": "newRoot",
          "type": "bytes32"
        }
      ],
      "name": "setRootWait",
      "outputs": [],
      "stateMutability": "nonpayable",
      "type": "function"
    },
    {
      "inputs": [],
      "name": "startGTD",
      "outputs": [
        {
          "internalType": "uint256",
          "name": "",
          "type": "uint256"
        }
      ],
      "stateMutability": "view",
      "type": "function"
    },
    {
      "inputs": [],
      "name": "startPublic",
      "outputs": [
        {
          "internalType": "uint256",
          "name": "",
          "type": "uint256"
        }
      ],
      "stateMutability": "view",
      "type": "function"
    },
    {
      "inputs": [],
      "name": "startWait",
      "outputs": [
        {
          "internalType": "uint256",
          "name": "",
          "type": "uint256"
        }
      ],
      "stateMutability": "view",
      "type": "function"
    },
    {
      "inputs": [],
      "name": "supplyRemains",
      "outputs": [
        {
          "internalType": "uint256",
          "name": "",
          "type": "uint256"
        }
      ],
      "stateMutability": "view",
      "type": "function"
    },
    {
      "inputs": [
        {
          "internalType": "bytes4",
          "name": "interfaceId",
          "type": "bytes4"
        }
      ],
      "name": "supportsInterface",
      "outputs": [
        {
          "internalType": "bool",
          "name": "",
          "type": "bool"
        }
      ],
      "stateMutability": "view",
      "type": "function"
    }
  ],
  "bytecode": "0x60a060405234801561001057600080fd5b50604051610f03380380610f0383398101604081905261002f91610179565b61003a6000836100b1565b506100657fa49807205ce4d355092ef5a8a18f56e8913cf4a201fbe287825b095693c21775836100b1565b5080516001600160a01b0316608090815260208201516001556040820151600255606082015160045581015160055560a081015160065560c081015160035560e0015160075550610250565b6000828152602081815260408083206001600160a01b038516845290915281205460ff16610153576000838152602081815260408083206001600160a01b03861684529091529020805460ff1916600117905561010b3390565b6001600160a01b0316826001600160a01b0316847f2f8788117e7eff1d82e926ec794901d17c78024a50270940304540a733656f0d60405160405180910390a4506001610157565b5060005b92915050565b80516001600160a01b038116811461017457600080fd5b919050565b60008082840361012081121561018e57600080fd5b6101978461015d565b9250610100601f19820112156101ac57600080fd5b5060405161010081016001600160401b03811182821017156101de57634e487b7160e01b600052604160045260246000fd5b6040526101ed6020850161015d565b81526040848101516020830152606080860151918301919091526080808601519183019190915260a0808601519183019190915260c0808601519183019190915260e0808601519183019190915261010090940151938101939093525092909150565b608051610c91610272600039600081816101ac01526107e30152610c916000f3fe608060405234801561001057600080fd5b50600436106101215760003560e01c80639411ef0b116100ad578063c884ef8311610071578063c884ef8314610267578063cf135c8614610287578063d338b03c1461029a578063d547741f146102ad578063ed47e8af146102c057600080fd5b80639411ef0b14610231578063a217fddf1461023a578063a328225214610242578063be61067614610255578063c11442f81461025e57600080fd5b80635bf8633a116100f45780635bf8633a146101a75780635e302e43146101e657806375b238fc146101ef5780638c874ebd1461021657806391d148541461021e57600080fd5b806301ffc9a714610126578063248a9ca31461014e5780632f2ff15d1461017f57806336568abe14610194575b600080fd5b610139610134366004610a41565b6102c9565b60405190151581526020015b60405180910390f35b61017161015c366004610a6b565b60009081526020819052604090206001015490565b604051908152602001610145565b61019261018d366004610aa0565b610300565b005b6101926101a2366004610aa0565b61032b565b6101ce7f000000000000000000000000000000000000000000000000000000000000000081565b6040516001600160a01b039091168152602001610145565b61017160035481565b6101717fa49807205ce4d355092ef5a8a18f56e8913cf4a201fbe287825b095693c2177581565b610192610363565b61013961022c366004610aa0565b610435565b61017160055481565b610171600081565b610192610250366004610a6b565b61045e565b61017160075481565b61017160065481565b610171610275366004610acc565b60086020526000908152604090205481565b610192610295366004610a6b565b61048e565b6101926102a8366004610afd565b6104be565b6101926102bb366004610aa0565b610645565b61017160045481565b60006001600160e01b03198216637965db0b60e01b14806102fa57506301ffc9a760e01b6001600160e01b03198316145b92915050565b60008281526020819052604090206001015461031b8161066a565b6103258383610677565b50505050565b6001600160a01b03811633146103545760405163334bd91960e11b815260040160405180910390fd5b61035e8282610709565b505050565b336000908152600860205260409020546001116103bb5760405162461bcd60e51b8152602060048201526011602482015270416c6c726561647920636c61696d65642160781b60448201526064015b60405180910390fd5b6006544210156104035760405162461bcd60e51b8152602060048201526013602482015272546f6f206561726c7920746f20636c61696d2160681b60448201526064016103b2565b336000908152600860205260408120805460019290610423908490610be0565b9091555061043390506002610774565b565b6000918252602082815260408084206001600160a01b0393909316845291905290205460ff1690565b7fa49807205ce4d355092ef5a8a18f56e8913cf4a201fbe287825b095693c217756104888161066a565b50600155565b7fa49807205ce4d355092ef5a8a18f56e8913cf4a201fbe287825b095693c217756104b88161066a565b50600255565b60075433600090815260086020526040902054106105125760405162461bcd60e51b8152602060048201526011602482015270416c6c726561647920636c61696d65642160781b60448201526064016103b2565b60045442101561055a5760405162461bcd60e51b8152602060048201526013602482015272546f6f206561726c7920746f20636c61696d2160681b60448201526064016103b2565b604080513360208201526000910160408051601f19818403018152828252805160209182012090830152016040516020818303038152906040528051906020012090506005544210156105db573360009081526008602052604081208054600192906105c7908490610be0565b909155506105d790508282610887565b5050565b60065442101561061557336000908152600860205260408120805460019290610605908490610be0565b909155506105d790508282610904565b336000908152600860205260408120805460019290610635908490610be0565b909155506105d790506002610774565b6000828152602081905260409020600101546106608161066a565b6103258383610709565b610674813361097d565b50565b60006106838383610435565b610701576000838152602081815260408083206001600160a01b03861684529091529020805460ff191660011790556106b93390565b6001600160a01b0316826001600160a01b0316847f2f8788117e7eff1d82e926ec794901d17c78024a50270940304540a733656f0d60405160405180910390a45060016102fa565b5060006102fa565b60006107158383610435565b15610701576000838152602081815260408083206001600160a01b0386168085529252808320805460ff1916905551339286917ff6391f5c32d9c69d2a47ea670b442974b53935d1edc7fd64eb21e047a839171b9190a45060016102fa565b6000600354116107b65760405162461bcd60e51b815260206004820152600d60248201526c4f7574206f662073746f636b2160981b60448201526064016103b2565b6001600360008282546107c99190610bf3565b90915550506040516340d097c360e01b81523360048201527f00000000000000000000000000000000000000000000000000000000000000006001600160a01b0316906340d097c390602401600060405180830381600087803b15801561082f57600080fd5b505af1158015610843573d6000803e3d6000fd5b505050507fc73092756e22756fd0b15b2f803bd49db35ee23e7ae171c4d414ab7a61fa8b7c338260035460405161087c93929190610c06565b60405180910390a150565b600154610896908390836109b6565b6108fa5760405162461bcd60e51b815260206004820152602f60248201527f53656e6465722069736e277420696e204754442077686974656c697374206f7260448201526e20696e76616c69642070726f6f662160881b60648201526084016103b2565b6105d76000610774565b600254610913908390836109b6565b6109735760405162461bcd60e51b815260206004820152602b60248201527f53656e6465722069736e277420696e2077686974656c697374206f7220696e7660448201526a616c69642070726f6f662160a81b60648201526084016103b2565b6105d76001610774565b6109878282610435565b6105d75760405163e2517d3f60e01b81526001600160a01b0382166004820152602481018390526044016103b2565b6000826109c385846109cc565b14949350505050565b600081815b8451811015610a07576109fd828683815181106109f0576109f0610c45565b6020026020010151610a0f565b91506001016109d1565b509392505050565b6000818310610a2b576000828152602084905260409020610a3a565b60008381526020839052604090205b9392505050565b600060208284031215610a5357600080fd5b81356001600160e01b031981168114610a3a57600080fd5b600060208284031215610a7d57600080fd5b5035919050565b80356001600160a01b0381168114610a9b57600080fd5b919050565b60008060408385031215610ab357600080fd5b82359150610ac360208401610a84565b90509250929050565b600060208284031215610ade57600080fd5b610a3a82610a84565b634e487b7160e01b600052604160045260246000fd5b600060208284031215610b0f57600080fd5b813567ffffffffffffffff811115610b2657600080fd5b8201601f81018413610b3757600080fd5b803567ffffffffffffffff811115610b5157610b51610ae7565b8060051b604051601f19603f830116810181811067ffffffffffffffff82111715610b7e57610b7e610ae7565b604052918252602081840181019290810187841115610b9c57600080fd5b6020850194505b83851015610bbf57843580825260209586019590935001610ba3565b509695505050505050565b634e487b7160e01b600052601160045260246000fd5b808201808211156102fa576102fa610bca565b818103818111156102fa576102fa610bca565b6001600160a01b03841681526060810160038410610c3457634e487b7160e01b600052602160045260246000fd5b602082019390935260400152919050565b634e487b7160e01b600052603260045260246000fdfea26469706673582212209d339a24c36ca12c11ceb116173d899064562a06ab1ad3e4f7cb5dc80f91757f64736f6c634300081b0033",
  "linkReferences": {},
  "deployedLinkReferences": {}
}